{
  "_format": "hh-sol-artifact-1",
  "contractName": "Voting",
  "sourceName": "contracts/Voting.sol",
  "abi": [
    {
      "inputs": [],
      "stateMutability": "nonpayable",
      "type": "constructor"
    },
    {
      "anonymous": false,
      "inputs": [
        {
          "indexed": true,
          "internalType": "address",
          "name": "voter",
          "type": "address"
        },
        {
          "indexed": true,
          "internalType": "string",
          "name": "candidate",
          "type": "string"
        },
        {
          "indexed": false,
          "internalType": "uint256",
          "name": "timestamp",
          "type": "uint256"
        }
      ],
      "name": "VoteCast",
      "type": "event"
    },
    {
      "inputs": [
        {
          "internalType": "address",
          "name": "voter",
          "type": "address"
        }
      ],
      "name": "getVotedFor",
      "outputs": [
        {
          "internalType": "string",
          "name": "",
          "type": "string"
        }
      ],
      "stateMutability": "view",
      "type": "function"
    },
    {
      "inputs": [
        {
          "internalType": "string",
          "name": "candidate",
          "type": "string"
        }
      ],
      "name": "getVotes",
      "outputs": [
        {
          "internalType": "uint256",
          "name": "",
          "type": "uint256"
        }
      ],
      "stateMutability": "view",
      "type": "function"
    },
    {
      "inputs": [
        {
          "internalType": "address",
          "name": "voter",
          "type": "address"
        }
      ],
      "name": "hasVoted",
      "outputs": [
        {
          "internalType": "bool",
          "name": "",
          "type": "bool"
        }
      ],
      "stateMutability": "view",
      "type": "function"
    },
    {
      "inputs": [
        {
          "internalType": "string",
          "name": "candidate",
          "type": "string"
        }
      ],
      "name": "vote",
      "outputs": [
        {
          "internalType": "bool",
          "name": "",
          "type": "bool"
        }
      ],
      "stateMutability": "nonpayable",
      "type": "function"
    },
    {
      "inputs": [
        {
          "internalType": "address",
          "name": "",
          "type": "address"
        }
      ],
      "name": "voters",
      "outputs": [
        {
          "internalType": "bool",
          "name": "hasVoted",
          "type": "bool"
        },
        {
          "internalType": "string",
          "name": "votedFor",
          "type": "string"
        }
      ],
      "stateMutability": "view",
      "type": "function"
    },
    {
      "inputs": [
        {
          "internalType": "string",
          "name": "",
          "type": "string"
        }
      ],
      "name": "votes",
      "outputs": [
        {
          "internalType": "uint256",
          "name": "",
          "type": "uint256"
        }
      ],
      "stateMutability": "view",
      "type": "function"
    }
  ],
  "bytecode": "0x608060405234801561001057600080fd5b506109dd806100206000396000f3fe608060405234801561001057600080fd5b50600436106100625760003560e01c806309eef43e14610067578063805265e514610097578063a3ec138d146100c7578063b99ef1fa146100f8578063da9d5c9214610128578063fc36e15b14610158575b600080fd5b610081600480360381019061007c919061051a565b610188565b60405161008e9190610562565b60405180910390f35b6100b160048036038101906100ac91906106c3565b6101e0565b6040516100be9190610725565b60405180910390f35b6100e160048036038101906100dc919061051a565b610208565b6040516100ef9291906107bf565b60405180910390f35b610112600480360381019061010d91906106c3565b6102c1565b60405161011f9190610725565b60405180910390f35b610142600480360381019061013d919061051a565b6102ef565b60405161014f91906107ef565b60405180910390f35b610172600480360381019061016d91906106c3565b6103c2565b60405161017f9190610562565b60405180910390f35b60008060008373ffffffffffffffffffffffffffffffffffffffff1673ffffffffffffffffffffffffffffffffffffffff16815260200190815260200160002060000160009054906101000a900460ff169050919050565b60006001826040516101f2919061084d565b9081526020016040518091039020549050919050565b60006020528060005260406000206000915090508060000160009054906101000a900460ff169080600101805461023e90610893565b80601f016020809104026020016040519081016040528092919081815260200182805461026a90610893565b80156102b75780601f1061028c576101008083540402835291602001916102b7565b820191906000526020600020905b81548152906001019060200180831161029a57829003601f168201915b5050505050905082565b6001818051602081018201805184825260208301602085012081835280955050505050506000915090505481565b60606000808373ffffffffffffffffffffffffffffffffffffffff1673ffffffffffffffffffffffffffffffffffffffff168152602001908152602001600020600101805461033d90610893565b80601f016020809104026020016040519081016040528092919081815260200182805461036990610893565b80156103b65780601f1061038b576101008083540402835291602001916103b6565b820191906000526020600020905b81548152906001019060200180831161039957829003601f168201915b50505050509050919050565b600080825111610407576040517f08c379a00000000000000000000000000000000000000000000000000000000081526004016103fe90610910565b60405180910390fd5b600182604051610417919061084d565b908152602001604051809103902060008154809291906104369061095f565b919050555081604051610449919061084d565b60405180910390203373ffffffffffffffffffffffffffffffffffffffff167f1fb22019789732eae1f9274664ab21c768f1e37e3782d8f5b620d139aac293b4426040516104979190610725565b60405180910390a360019050919050565b6000604051905090565b600080fd5b600080fd5b600073ffffffffffffffffffffffffffffffffffffffff82169050919050565b60006104e7826104bc565b9050919050565b6104f7816104dc565b811461050257600080fd5b50565b600081359050610514816104ee565b92915050565b6000602082840312156105305761052f6104b2565b5b600061053e84828501610505565b91505092915050565b60008115159050919050565b61055c81610547565b82525050565b60006020820190506105776000830184610553565b92915050565b600080fd5b600080fd5b6000601f19601f8301169050919050565b7f4e487b7100000000000000000000000000000000000000000000000000000000600052604160045260246000fd5b6105d082610587565b810181811067ffffffffffffffff821117156105ef576105ee610598565b5b80604052505050565b60006106026104a8565b905061060e82826105c7565b919050565b600067ffffffffffffffff82111561062e5761062d610598565b5b61063782610587565b9050602081019050919050565b82818337600083830152505050565b600061066661066184610613565b6105f8565b90508281526020810184848401111561068257610681610582565b5b61068d848285610644565b509392505050565b600082601f8301126106aa576106a961057d565b5b81356106ba848260208601610653565b91505092915050565b6000602082840312156106d9576106d86104b2565b5b600082013567ffffffffffffffff8111156106f7576106f66104b7565b5b61070384828501610695565b91505092915050565b6000819050919050565b61071f8161070c565b82525050565b600060208201905061073a6000830184610716565b92915050565b600081519050919050565b600082825260208201905092915050565b60005b8381101561077a57808201518184015260208101905061075f565b60008484015250505050565b600061079182610740565b61079b818561074b565b93506107ab81856020860161075c565b6107b481610587565b840191505092915050565b60006040820190506107d46000830185610553565b81810360208301526107e68184610786565b90509392505050565b600060208201905081810360008301526108098184610786565b905092915050565b600081905092915050565b600061082782610740565b6108318185610811565b935061084181856020860161075c565b80840191505092915050565b6000610859828461081c565b915081905092915050565b7f4e487b7100000000000000000000000000000000000000000000000000000000600052602260045260246000fd5b600060028204905060018216806108ab57607f821691505b6020821081036108be576108bd610864565b5b50919050565b7f496e76616c69642063616e646964617465000000000000000000000000000000600082015250565b60006108fa60118361074b565b9150610905826108c4565b602082019050919050565b60006020820190508181036000830152610929816108ed565b9050919050565b7f4e487b7100000000000000000000000000000000000000000000000000000000600052601160045260246000fd5b600061096a8261070c565b91507fffffffffffffffffffffffffffffffffffffffffffffffffffffffffffffffff820361099c5761099b610930565b5b60018201905091905056fea2646970667358221220fe22420a4a189fa5d59eb7361a92e3778eeed1485d3366ae07257de9ee5dd8a264736f6c63430008130033",
  "linkReferences": {},
  "deployedLinkReferences": {}
}